{
  "_format": "hh-sol-artifact-1",
  "contractName": "FeedBack",
  "sourceName": "contracts/FeedBack.sol",
  "abi": [
    {
      "inputs": [],
      "stateMutability": "nonpayable",
      "type": "constructor"
    },
    {
      "anonymous": false,
      "inputs": [
        {
          "indexed": true,
          "internalType": "address",
          "name": "from",
          "type": "address"
        },
        {
          "indexed": false,
          "internalType": "uint256",
          "name": "timestamp",
          "type": "uint256"
        },
        {
          "indexed": false,
          "internalType": "string",
          "name": "message",
          "type": "string"
        }
      ],
      "name": "NewFeedback",
      "type": "event"
    },
    {
      "inputs": [],
      "name": "getAllFeedback",
      "outputs": [
        {
          "components": [
            {
              "internalType": "address",
              "name": "waver",
              "type": "address"
            },
            {
              "internalType": "string",
              "name": "message",
              "type": "string"
            },
            {
              "internalType": "uint256",
              "name": "timestamp",
              "type": "uint256"
            }
          ],
          "internalType": "struct FeedBack.feedback[]",
          "name": "",
          "type": "tuple[]"
        }
      ],
      "stateMutability": "view",
      "type": "function"
    },
    {
      "inputs": [],
      "name": "getTotalFeedback",
      "outputs": [
        {
          "internalType": "uint256",
          "name": "",
          "type": "uint256"
        }
      ],
      "stateMutability": "view",
      "type": "function"
    },
    {
      "inputs": [
        {
          "internalType": "string",
          "name": "_message",
          "type": "string"
        }
      ],
      "name": "newFeedback",
      "outputs": [],
      "stateMutability": "nonpayable",
      "type": "function"
    }
  ],
  "bytecode": "0x60806040523480156200001157600080fd5b506200004160405180606001604052806021815260200162000ffa602191396200004760201b620003ab1760201c565b620001d1565b620000e7816040516024016200005e9190620001ad565b6040516020818303038152906040527f41304fac000000000000000000000000000000000000000000000000000000007bffffffffffffffffffffffffffffffffffffffffffffffffffffffff19166020820180517bffffffffffffffffffffffffffffffffffffffffffffffffffffffff8381831617835250505050620000ea60201b60201c565b50565b60008151905060006a636f6e736f6c652e6c6f679050602083016000808483855afa5050505050565b600081519050919050565b600082825260208201905092915050565b60005b838110156200014f57808201518184015260208101905062000132565b60008484015250505050565b6000601f19601f8301169050919050565b6000620001798262000113565b6200018581856200011e565b9350620001978185602086016200012f565b620001a2816200015b565b840191505092915050565b60006020820190508181036000830152620001c981846200016c565b905092915050565b610e1980620001e16000396000f3fe608060405234801561001057600080fd5b50600436106100415760003560e01c8063d3b6866414610046578063d5b1695614610064578063ddb2354e14610082575b600080fd5b61004e61009e565b60405161005b91906107a4565b60405180910390f35b61006c6101ef565b60405161007991906107d5565b60405180910390f35b61009c60048036038101906100979190610939565b61023a565b005b60606001805480602002602001604051908101604052809291908181526020016000905b828210156101e657838290600052602060002090600302016040518060600160405290816000820160009054906101000a900473ffffffffffffffffffffffffffffffffffffffff1673ffffffffffffffffffffffffffffffffffffffff1673ffffffffffffffffffffffffffffffffffffffff16815260200160018201805461014b906109b1565b80601f0160208091040260200160405190810160405280929190818152602001828054610177906109b1565b80156101c45780601f10610199576101008083540402835291602001916101c4565b820191906000526020600020905b8154815290600101906020018083116101a757829003601f168201915b50505050508152602001600282015481525050815260200190600101906100c2565b50505050905090565b60006102326040518060400160405280601b81526020017f5765206861766520256420746f74616c20666565646261636b73210000000000815250600054610444565b600054905090565b600160008082825461024c9190610a11565b925050819055506102936040518060400160405280601681526020017f257320776176656420772f206d6573736167652025730000000000000000000081525033836104e0565b600160405180606001604052803373ffffffffffffffffffffffffffffffffffffffff16815260200183815260200142815250908060018154018082558091505060019003906000526020600020906003020160009091909190915060008201518160000160006101000a81548173ffffffffffffffffffffffffffffffffffffffff021916908373ffffffffffffffffffffffffffffffffffffffff160217905550602082015181600101908161034b9190610bf1565b506040820151816002015550503373ffffffffffffffffffffffffffffffffffffffff167fdcb86d6802c0813e667057c481096d0284829acfbe1b733269ffc5ac2e4bd39042836040516103a0929190610d0d565b60405180910390a250565b610441816040516024016103bf9190610d3d565b6040516020818303038152906040527f41304fac000000000000000000000000000000000000000000000000000000007bffffffffffffffffffffffffffffffffffffffffffffffffffffffff19166020820180517bffffffffffffffffffffffffffffffffffffffffffffffffffffffff838183161783525050505061057f565b50565b6104dc828260405160240161045a929190610d5f565b6040516020818303038152906040527fb60e72cc000000000000000000000000000000000000000000000000000000007bffffffffffffffffffffffffffffffffffffffffffffffffffffffff19166020820180517bffffffffffffffffffffffffffffffffffffffffffffffffffffffff838183161783525050505061057f565b5050565b61057a8383836040516024016104f893929190610d9e565b6040516020818303038152906040527fe0e9ad4f000000000000000000000000000000000000000000000000000000007bffffffffffffffffffffffffffffffffffffffffffffffffffffffff19166020820180517bffffffffffffffffffffffffffffffffffffffffffffffffffffffff838183161783525050505061057f565b505050565b60008151905060006a636f6e736f6c652e6c6f679050602083016000808483855afa5050505050565b600081519050919050565b600082825260208201905092915050565b6000819050602082019050919050565b600073ffffffffffffffffffffffffffffffffffffffff82169050919050565b60006105ff826105d4565b9050919050565b61060f816105f4565b82525050565b600081519050919050565b600082825260208201905092915050565b60005b8381101561064f578082015181840152602081019050610634565b60008484015250505050565b6000601f19601f8301169050919050565b600061067782610615565b6106818185610620565b9350610691818560208601610631565b61069a8161065b565b840191505092915050565b6000819050919050565b6106b8816106a5565b82525050565b60006060830160008301516106d66000860182610606565b50602083015184820360208601526106ee828261066c565b915050604083015161070360408601826106af565b508091505092915050565b600061071a83836106be565b905092915050565b6000602082019050919050565b600061073a826105a8565b61074481856105b3565b935083602082028501610756856105c4565b8060005b858110156107925784840389528151610773858261070e565b945061077e83610722565b925060208a0199505060018101905061075a565b50829750879550505050505092915050565b600060208201905081810360008301526107be818461072f565b905092915050565b6107cf816106a5565b82525050565b60006020820190506107ea60008301846107c6565b92915050565b6000604051905090565b600080fd5b600080fd5b600080fd5b600080fd5b7f4e487b7100000000000000000000000000000000000000000000000000000000600052604160045260246000fd5b6108468261065b565b810181811067ffffffffffffffff821117156108655761086461080e565b5b80604052505050565b60006108786107f0565b9050610884828261083d565b919050565b600067ffffffffffffffff8211156108a4576108a361080e565b5b6108ad8261065b565b9050602081019050919050565b82818337600083830152505050565b60006108dc6108d784610889565b61086e565b9050828152602081018484840111156108f8576108f7610809565b5b6109038482856108ba565b509392505050565b600082601f8301126109205761091f610804565b5b81356109308482602086016108c9565b91505092915050565b60006020828403121561094f5761094e6107fa565b5b600082013567ffffffffffffffff81111561096d5761096c6107ff565b5b6109798482850161090b565b91505092915050565b7f4e487b7100000000000000000000000000000000000000000000000000000000600052602260045260246000fd5b600060028204905060018216806109c957607f821691505b6020821081036109dc576109db610982565b5b50919050565b7f4e487b7100000000000000000000000000000000000000000000000000000000600052601160045260246000fd5b6000610a1c826106a5565b9150610a27836106a5565b9250828201905080821115610a3f57610a3e6109e2565b5b92915050565b60008190508160005260206000209050919050565b60006020601f8301049050919050565b600082821b905092915050565b600060088302610aa77fffffffffffffffffffffffffffffffffffffffffffffffffffffffffffffffff82610a6a565b610ab18683610a6a565b95508019841693508086168417925050509392505050565b6000819050919050565b6000610aee610ae9610ae4846106a5565b610ac9565b6106a5565b9050919050565b6000819050919050565b610b0883610ad3565b610b1c610b1482610af5565b848454610a77565b825550505050565b600090565b610b31610b24565b610b3c818484610aff565b505050565b5b81811015610b6057610b55600082610b29565b600181019050610b42565b5050565b601f821115610ba557610b7681610a45565b610b7f84610a5a565b81016020851015610b8e578190505b610ba2610b9a85610a5a565b830182610b41565b50505b505050565b600082821c905092915050565b6000610bc860001984600802610baa565b1980831691505092915050565b6000610be18383610bb7565b9150826002028217905092915050565b610bfa82610615565b67ffffffffffffffff811115610c1357610c1261080e565b5b610c1d82546109b1565b610c28828285610b64565b600060209050601f831160018114610c5b5760008415610c49578287015190505b610c538582610bd5565b865550610cbb565b601f198416610c6986610a45565b60005b82811015610c9157848901518255600182019150602085019450602081019050610c6c565b86831015610cae5784890151610caa601f891682610bb7565b8355505b6001600288020188555050505b505050505050565b600082825260208201905092915050565b6000610cdf82610615565b610ce98185610cc3565b9350610cf9818560208601610631565b610d028161065b565b840191505092915050565b6000604082019050610d2260008301856107c6565b8181036020830152610d348184610cd4565b90509392505050565b60006020820190508181036000830152610d578184610cd4565b905092915050565b60006040820190508181036000830152610d798185610cd4565b9050610d8860208301846107c6565b9392505050565b610d98816105f4565b82525050565b60006060820190508181036000830152610db88186610cd4565b9050610dc76020830185610d8f565b8181036040830152610dd98184610cd4565b905094935050505056fea264697066735822122020d59105ab6eb78e49d08286b29ed4f454644c215ae5449fa8bcf2d7c93430db64736f6c6343000811003354686973204973204120466565646261636b20536d61727420436f6e7472616374",
  "linkReferences": {},
  "deployedLinkReferences": {}
}